{
    "_format": "hh-sol-artifact-1",
    "contractName": "WavePortal",
    "sourceName": "contracts/WavePortal.sol",
    "abi": [
        {
            "inputs": [],
            "stateMutability": "payable",
            "type": "constructor"
        },
        {
            "anonymous": false,
            "inputs": [
                {
                    "indexed": true,
                    "internalType": "address",
                    "name": "from",
                    "type": "address"
                },
                {
                    "indexed": false,
                    "internalType": "uint256",
                    "name": "timestamp",
                    "type": "uint256"
                },
                {
                    "indexed": false,
                    "internalType": "string",
                    "name": "message",
                    "type": "string"
                }
            ],
            "name": "NewWave",
            "type": "event"
        },
        {
            "inputs": [],
            "name": "getAllWaves",
            "outputs": [
                {
                    "components": [
                        {
                            "internalType": "address",
                            "name": "waver",
                            "type": "address"
                        },
                        {
                            "internalType": "string",
                            "name": "message",
                            "type": "string"
                        },
                        {
                            "internalType": "uint256",
                            "name": "timestamp",
                            "type": "uint256"
                        }
                    ],
                    "internalType": "struct WavePortal.Wave[]",
                    "name": "",
                    "type": "tuple[]"
                }
            ],
            "stateMutability": "view",
            "type": "function"
        },
        {
            "inputs": [],
            "name": "getTotalWaves",
            "outputs": [
                {
                    "internalType": "uint256",
                    "name": "",
                    "type": "uint256"
                }
            ],
            "stateMutability": "view",
            "type": "function"
        },
        {
            "inputs": [
                {
                    "internalType": "address",
                    "name": "",
                    "type": "address"
                }
            ],
            "name": "lastWavedAt",
            "outputs": [
                {
                    "internalType": "uint256",
                    "name": "",
                    "type": "uint256"
                }
            ],
            "stateMutability": "view",
            "type": "function"
        },
        {
            "inputs": [
                {
                    "internalType": "string",
                    "name": "_message",
                    "type": "string"
                }
            ],
            "name": "wave",
            "outputs": [],
            "stateMutability": "nonpayable",
            "type": "function"
        }
    ],
    "bytecode": "0x60806040526200004f6040518060400160405280601981526020017f57652068617665206265656e20636f6e737472756374656421000000000000008152506200005560201b620004061760201c565b620001e9565b620000f5816040516024016200006c919062000162565b6040516020818303038152906040527f41304fac000000000000000000000000000000000000000000000000000000007bffffffffffffffffffffffffffffffffffffffffffffffffffffffff19166020820180517bffffffffffffffffffffffffffffffffffffffffffffffffffffffff8381831617835250505050620000f860201b60201c565b50565b60008151905060006a636f6e736f6c652e6c6f679050602083016000808483855afa5050505050565b60006200012e8262000186565b6200013a818562000191565b93506200014c818560208601620001a2565b6200015781620001d8565b840191505092915050565b600060208201905081810360008301526200017e818462000121565b905092915050565b600081519050919050565b600082825260208201905092915050565b60005b83811015620001c2578082015181840152602081019050620001a5565b83811115620001d2576000848401525b50505050565b6000601f19601f8301169050919050565b610bec80620001f96000396000f3fe608060405234801561001057600080fd5b506004361061004c5760003560e01c8063449d46c0146100515780639a2cdc081461006d578063a42a46631461008b578063bd43a908146100bb575b600080fd5b61006b600480360381019061006691906106ad565b6100d9565b005b610075610294565b60405161008291906108e9565b60405180910390f35b6100a560048036038101906100a09190610684565b61029d565b6040516100b291906108e9565b60405180910390f35b6100c36102b5565b6040516100d09190610875565b60405180910390f35b42600260003373ffffffffffffffffffffffffffffffffffffffff1673ffffffffffffffffffffffffffffffffffffffff16815260200190815260200160002081905550600160008082825461012f91906109fb565b925050819055506101756040518060400160405280600d81526020017f25732068617320776176656421000000000000000000000000000000000000008152503361049f565b600160405180606001604052803373ffffffffffffffffffffffffffffffffffffffff16815260200183815260200142815250908060018154018082558091505060019003906000526020600020906003020160009091909190915060008201518160000160006101000a81548173ffffffffffffffffffffffffffffffffffffffff021916908373ffffffffffffffffffffffffffffffffffffffff1602179055506020820151816001019080519060200190610234929190610564565b506040820151816002015550503373ffffffffffffffffffffffffffffffffffffffff167f5f7e16dc676677766a70e9c5628aa6c54ddb8b6e5188e2ae1e1f17f1ffbea7164283604051610289929190610904565b60405180910390a250565b60008054905090565b60026020528060005260406000206000915090505481565b60606001805480602002602001604051908101604052809291908181526020016000905b828210156103fd57838290600052602060002090600302016040518060600160405290816000820160009054906101000a900473ffffffffffffffffffffffffffffffffffffffff1673ffffffffffffffffffffffffffffffffffffffff1673ffffffffffffffffffffffffffffffffffffffff16815260200160018201805461036290610acf565b80601f016020809104026020016040519081016040528092919081815260200182805461038e90610acf565b80156103db5780601f106103b0576101008083540402835291602001916103db565b820191906000526020600020905b8154815290600101906020018083116103be57829003601f168201915b50505050508152602001600282015481525050815260200190600101906102d9565b50505050905090565b61049c8160405160240161041a9190610897565b6040516020818303038152906040527f41304fac000000000000000000000000000000000000000000000000000000007bffffffffffffffffffffffffffffffffffffffffffffffffffffffff19166020820180517bffffffffffffffffffffffffffffffffffffffffffffffffffffffff838183161783525050505061053b565b50565b61053782826040516024016104b59291906108b9565b6040516020818303038152906040527f319af333000000000000000000000000000000000000000000000000000000007bffffffffffffffffffffffffffffffffffffffffffffffffffffffff19166020820180517bffffffffffffffffffffffffffffffffffffffffffffffffffffffff838183161783525050505061053b565b5050565b60008151905060006a636f6e736f6c652e6c6f679050602083016000808483855afa5050505050565b82805461057090610acf565b90600052602060002090601f01602090048101928261059257600085556105d9565b82601f106105ab57805160ff19168380011785556105d9565b828001600101855582156105d9579182015b828111156105d85782518255916020019190600101906105bd565b5b5090506105e691906105ea565b5090565b5b808211156106035760008160009055506001016105eb565b5090565b600061061a61061584610965565b610934565b90508281526020810184848401111561063257600080fd5b61063d848285610a8d565b509392505050565b60008135905061065481610b9f565b92915050565b600082601f83011261066b57600080fd5b813561067b848260208601610607565b91505092915050565b60006020828403121561069657600080fd5b60006106a484828501610645565b91505092915050565b6000602082840312156106bf57600080fd5b600082013567ffffffffffffffff8111156106d957600080fd5b6106e58482850161065a565b91505092915050565b60006106fa8383610807565b905092915050565b61070b81610a51565b82525050565b61071a81610a51565b82525050565b600061072b826109a5565b61073581856109c8565b93508360208202850161074785610995565b8060005b85811015610783578484038952815161076485826106ee565b945061076f836109bb565b925060208a0199505060018101905061074b565b50829750879550505050505092915050565b60006107a0826109b0565b6107aa81856109d9565b93506107ba818560208601610a9c565b6107c381610b8e565b840191505092915050565b60006107d9826109b0565b6107e381856109ea565b93506107f3818560208601610a9c565b6107fc81610b8e565b840191505092915050565b600060608301600083015161081f6000860182610702565b50602083015184820360208601526108378282610795565b915050604083015161084c6040860182610857565b508091505092915050565b61086081610a83565b82525050565b61086f81610a83565b82525050565b6000602082019050818103600083015261088f8184610720565b905092915050565b600060208201905081810360008301526108b181846107ce565b905092915050565b600060408201905081810360008301526108d381856107ce565b90506108e26020830184610711565b9392505050565b60006020820190506108fe6000830184610866565b92915050565b60006040820190506109196000830185610866565b818103602083015261092b81846107ce565b90509392505050565b6000604051905081810181811067ffffffffffffffff8211171561095b5761095a610b5f565b5b8060405250919050565b600067ffffffffffffffff8211156109805761097f610b5f565b5b601f19601f8301169050602081019050919050565b6000819050602082019050919050565b600081519050919050565b600081519050919050565b6000602082019050919050565b600082825260208201905092915050565b600082825260208201905092915050565b600082825260208201905092915050565b6000610a0682610a83565b9150610a1183610a83565b9250827fffffffffffffffffffffffffffffffffffffffffffffffffffffffffffffffff03821115610a4657610a45610b01565b5b828201905092915050565b6000610a5c82610a63565b9050919050565b600073ffffffffffffffffffffffffffffffffffffffff82169050919050565b6000819050919050565b82818337600083830152505050565b60005b83811015610aba578082015181840152602081019050610a9f565b83811115610ac9576000848401525b50505050565b60006002820490506001821680610ae757607f821691505b60208210811415610afb57610afa610b30565b5b50919050565b7f4e487b7100000000000000000000000000000000000000000000000000000000600052601160045260246000fd5b7f4e487b7100000000000000000000000000000000000000000000000000000000600052602260045260246000fd5b7f4e487b7100000000000000000000000000000000000000000000000000000000600052604160045260246000fd5b6000601f19601f8301169050919050565b610ba881610a51565b8114610bb357600080fd5b5056fea2646970667358221220c4cb86edb218926ec84a9f9459edbe1830f4b9016d4da3a5b11d370268806a1764736f6c63430008000033",
    "linkReferences": {},
    "deployedLinkReferences": {}
}